{
  "contractName": "PaymentContract",
  "abi": [
    {
      "inputs": [
        {
          "internalType": "uint256",
          "name": "_totalAmount",
          "type": "uint256"
        },
        {
          "internalType": "uint256",
          "name": "_paymentPercentage",
          "type": "uint256"
        },
        {
          "internalType": "uint256",
          "name": "_paymentInterval",
          "type": "uint256"
        },
        {
          "internalType": "address[]",
          "name": "_beneficiaries",
          "type": "address[]"
        }
      ],
      "stateMutability": "nonpayable",
      "type": "constructor"
    },
    {
      "anonymous": false,
      "inputs": [
        {
          "indexed": true,
          "internalType": "address",
          "name": "beneficiary",
          "type": "address"
        },
        {
          "indexed": false,
          "internalType": "uint256",
          "name": "amount",
          "type": "uint256"
        }
      ],
      "name": "Payment",
      "type": "event"
    },
    {
      "inputs": [
        {
          "internalType": "address",
          "name": "",
          "type": "address"
        }
      ],
      "name": "amountsPaid",
      "outputs": [
        {
          "internalType": "uint256",
          "name": "",
          "type": "uint256"
        }
      ],
      "stateMutability": "view",
      "type": "function"
    },
    {
      "inputs": [],
      "name": "depositFunds",
      "outputs": [],
      "stateMutability": "payable",
      "type": "function"
    },
    {
      "inputs": [],
      "name": "distributeFundsAutomatically",
      "outputs": [],
      "stateMutability": "nonpayable",
      "type": "function"
    },
    {
      "inputs": [],
      "name": "withdrawExcess",
      "outputs": [],
      "stateMutability": "nonpayable",
      "type": "function"
    },
    {
      "inputs": [],
      "name": "getTotalAmount",
      "outputs": [
        {
          "internalType": "uint256",
          "name": "",
          "type": "uint256"
        }
      ],
      "stateMutability": "view",
      "type": "function"
    },
    {
      "inputs": [],
      "name": "getTotalPaid",
      "outputs": [
        {
          "internalType": "uint256",
          "name": "",
          "type": "uint256"
        }
      ],
      "stateMutability": "view",
      "type": "function"
    }
  ],
  "bytecode": "0x608060405234801562000010575f80fd5b50604051620011f5380380620011f583398181016040528101906200003691906200037c565b335f806101000a81548173ffffffffffffffffffffffffffffffffffffffff021916908373ffffffffffffffffffffffffffffffffffffffff1602179055508360018190555082600381905550816004819055508060079080519060200190620000a2929190620000bd565b5042600581905550600554600681905550505050506200040a565b828054828255905f5260205f2090810192821562000136579160200282015b8281111562000135578251825f6101000a81548173ffffffffffffffffffffffffffffffffffffffff021916908373ffffffffffffffffffffffffffffffffffffffff16021790555091602001919060010190620000dc565b5b50905062000145919062000149565b5090565b5b8082111562000162575f815f9055506001016200014a565b5090565b5f604051905090565b5f80fd5b5f80fd5b5f819050919050565b6200018b8162000177565b811462000196575f80fd5b50565b5f81519050620001a98162000180565b92915050565b5f80fd5b5f601f19601f8301169050919050565b7f4e487b71000000000000000000000000000000000000000000000000000000005f52604160045260245ffd5b620001fb82620001b3565b810181811067ffffffffffffffff821117156200021d576200021c620001c3565b5b80604052505050565b5f6200023162000166565b90506200023f8282620001f0565b919050565b5f67ffffffffffffffff821115620002615762000260620001c3565b5b602082029050602081019050919050565b5f80fd5b5f73ffffffffffffffffffffffffffffffffffffffff82169050919050565b5f620002a18262000276565b9050919050565b620002b38162000295565b8114620002be575f80fd5b50565b5f81519050620002d181620002a8565b92915050565b5f620002ed620002e78462000244565b62000226565b9050808382526020820190506020840283018581111562000313576200031262000272565b5b835b818110156200034057806200032b8882620002c1565b84526020840193505060208101905062000315565b5050509392505050565b5f82601f830112620003615762000360620001af565b5b815162000373848260208601620002d7565b91505092915050565b5f805f80608085870312156200039757620003966200016f565b5b5f620003a68782880162000199565b9450506020620003b98782880162000199565b9350506040620003cc8782880162000199565b925050606085015167ffffffffffffffff811115620003f057620003ef62000173565b5b620003fe878288016200034a565b91505092959194509250565b610ddd80620004185f395ff3fe608060405260043610610054575f3560e01c80633f5a10721461005857806365ac43411461006e5780636793141f14610098578063c264a063146100c2578063de3a6978146100d8578063e2c41dbc14610114575b5f80fd5b348015610063575f80fd5b5061006c61011e565b005b348015610079575f80fd5b506100826105d1565b60405161008f919061086e565b60405180910390f35b3480156100a3575f80fd5b506100ac6105da565b6040516100b9919061086e565b60405180910390f35b3480156100cd575f80fd5b506100d66105e3565b005b3480156100e3575f80fd5b506100fe60048036038101906100f991906108e5565b61076e565b60405161010b919061086e565b60405180910390f35b61011c610783565b005b5f8054906101000a900473ffffffffffffffffffffffffffffffffffffffff1673ffffffffffffffffffffffffffffffffffffffff163373ffffffffffffffffffffffffffffffffffffffff16146101ab576040517f08c379a00000000000000000000000000000000000000000000000000000000081526004016101a290610990565b60405180910390fd5b6005544210156101f0576040517f08c379a00000000000000000000000000000000000000000000000000000000081526004016101e790610a1e565b60405180910390fd5b60015460025410610236576040517f08c379a000000000000000000000000000000000000000000000000000000000815260040161022d90610a86565b60405180910390fd5b6004546006546102469190610ad1565b421015610288576040517f08c379a000000000000000000000000000000000000000000000000000000000815260040161027f90610b74565b60405180910390fd5b5f5b6007805490508110156105c7575f600782815481106102ac576102ab610b92565b5b905f5260205f20015f9054906101000a900473ffffffffffffffffffffffffffffffffffffffff1690505f60646003546001546102e99190610bbf565b6102f39190610c2d565b90508060085f8473ffffffffffffffffffffffffffffffffffffffff1673ffffffffffffffffffffffffffffffffffffffff1681526020019081526020015f205410156105b2575f60085f8473ffffffffffffffffffffffffffffffffffffffff1673ffffffffffffffffffffffffffffffffffffffff1681526020019081526020015f2054826103849190610c5d565b9050600154816002546103979190610ad1565b1161049e578273ffffffffffffffffffffffffffffffffffffffff166108fc8290811502906040515f60405180830381858888f193505050501580156103df573d5f803e3d5ffd5b508060085f8573ffffffffffffffffffffffffffffffffffffffff1673ffffffffffffffffffffffffffffffffffffffff1681526020019081526020015f205f82825461042c9190610ad1565b925050819055508060025f8282546104449190610ad1565b925050819055508273ffffffffffffffffffffffffffffffffffffffff167fd4f43975feb89f48dd30cabbb32011045be187d1e11c8ea9faa43efc3528251982604051610491919061086e565b60405180910390a26105b0565b5f6002546001546104af9190610c5d565b90508373ffffffffffffffffffffffffffffffffffffffff166108fc8290811502906040515f60405180830381858888f193505050501580156104f4573d5f803e3d5ffd5b508060085f8673ffffffffffffffffffffffffffffffffffffffff1673ffffffffffffffffffffffffffffffffffffffff1681526020019081526020015f205f8282546105419190610ad1565b925050819055508060025f8282546105599190610ad1565b925050819055508373ffffffffffffffffffffffffffffffffffffffff167fd4f43975feb89f48dd30cabbb32011045be187d1e11c8ea9faa43efc35282519826040516105a6919061086e565b60405180910390a2505b505b505080806105bf90610c90565b91505061028a565b5042600681905550565b5f600154905090565b5f600254905090565b5f8054906101000a900473ffffffffffffffffffffffffffffffffffffffff1673ffffffffffffffffffffffffffffffffffffffff163373ffffffffffffffffffffffffffffffffffffffff1614610670576040517f08c379a000000000000000000000000000000000000000000000000000000000815260040161066790610990565b60405180910390fd5b6005544210156106b5576040517f08c379a00000000000000000000000000000000000000000000000000000000081526004016106ac90610a1e565b60405180910390fd5b60015460025410156106fc576040517f08c379a00000000000000000000000000000000000000000000000000000000081526004016106f390610d21565b60405180910390fd5b5f8054906101000a900473ffffffffffffffffffffffffffffffffffffffff1673ffffffffffffffffffffffffffffffffffffffff166108fc600154476107439190610c5d565b90811502906040515f60405180830381858888f1935050505015801561076b573d5f803e3d5ffd5b50565b6008602052805f5260405f205f915090505481565b5f8054906101000a900473ffffffffffffffffffffffffffffffffffffffff1673ffffffffffffffffffffffffffffffffffffffff163373ffffffffffffffffffffffffffffffffffffffff1614610810576040517f08c379a000000000000000000000000000000000000000000000000000000000815260040161080790610990565b60405180910390fd5b6001543414610854576040517f08c379a000000000000000000000000000000000000000000000000000000000815260040161084b90610d89565b60405180910390fd5b565b5f819050919050565b61086881610856565b82525050565b5f6020820190506108815f83018461085f565b92915050565b5f80fd5b5f73ffffffffffffffffffffffffffffffffffffffff82169050919050565b5f6108b48261088b565b9050919050565b6108c4816108aa565b81146108ce575f80fd5b50565b5f813590506108df816108bb565b92915050565b5f602082840312156108fa576108f9610887565b5b5f610907848285016108d1565b91505092915050565b5f82825260208201905092915050565b7f4f6e6c7920746865206f776e65722063616e2063616c6c20746869732066756e5f8201527f6374696f6e000000000000000000000000000000000000000000000000000000602082015250565b5f61097a602583610910565b915061098582610920565b604082019050919050565b5f6020820190508181035f8301526109a78161096e565b9050919050565b7f5061796d656e7420706572696f6420686173206e6f74207374617274656420795f8201527f6574000000000000000000000000000000000000000000000000000000000000602082015250565b5f610a08602283610910565b9150610a13826109ae565b604082019050919050565b5f6020820190508181035f830152610a35816109fc565b9050919050565b7f416c6c2066756e64732068617665206265656e206469737472696275746564005f82015250565b5f610a70601f83610910565b9150610a7b82610a3c565b602082019050919050565b5f6020820190508181035f830152610a9d81610a64565b9050919050565b7f4e487b71000000000000000000000000000000000000000000000000000000005f52601160045260245ffd5b5f610adb82610856565b9150610ae683610856565b9250828201905080821115610afe57610afd610aa4565b5b92915050565b7f5061796d656e7420696e74657276616c20686173206e6f7420656c61707365645f8201527f2079657400000000000000000000000000000000000000000000000000000000602082015250565b5f610b5e602483610910565b9150610b6982610b04565b604082019050919050565b5f6020820190508181035f830152610b8b81610b52565b9050919050565b7f4e487b71000000000000000000000000000000000000000000000000000000005f52603260045260245ffd5b5f610bc982610856565b9150610bd483610856565b9250828202610be281610856565b91508282048414831517610bf957610bf8610aa4565b5b5092915050565b7f4e487b71000000000000000000000000000000000000000000000000000000005f52601260045260245ffd5b5f610c3782610856565b9150610c4283610856565b925082610c5257610c51610c00565b5b828204905092915050565b5f610c6782610856565b9150610c7283610856565b9250828203905081811115610c8a57610c89610aa4565b5b92915050565b5f610c9a82610856565b91507fffffffffffffffffffffffffffffffffffffffffffffffffffffffffffffffff8203610ccc57610ccb610aa4565b5b600182019050919050565b7f546f74616c20616d6f756e74206e6f74207061696420796574000000000000005f82015250565b5f610d0b601983610910565b9150610d1682610cd7565b602082019050919050565b5f6020820190508181035f830152610d3881610cff565b9050919050565b7f496e636f727265637420616d6f756e742073656e7400000000000000000000005f82015250565b5f610d73601583610910565b9150610d7e82610d3f565b602082019050919050565b5f6020820190508181035f830152610da081610d67565b905091905056fea2646970667358221220f81ea90aee5ccc0ec7e8f1cfe437f08e91b8a233c516b7afd7e8fb25f113110464736f6c63430008150033",
  "immutableReferences": {},
  "source": "// SPDX-License-Identifier: MIT\npragma solidity >=0.4.22 <0.9.0;\n\ncontract PaymentContract {\n    address payable owner;\n    uint256 totalAmount;\n    uint256 totalPaid;\n    uint256 paymentPercentage;\n    uint256 paymentInterval;\n    uint256 startTime;\n    uint256 lastDistributionTime; // Add this variable\n    address[] beneficiaries;\n    mapping(address => uint256) public amountsPaid;\n\n    event Payment(address indexed beneficiary, uint256 amount);\n\n    constructor(\n        uint256 _totalAmount,\n        uint256 _paymentPercentage,\n        uint256 _paymentInterval,\n        address[] memory _beneficiaries\n    ) {\n        owner = payable(msg.sender);\n        totalAmount = _totalAmount;\n        paymentPercentage = _paymentPercentage;\n        paymentInterval = _paymentInterval;\n        beneficiaries = _beneficiaries;\n        startTime = block.timestamp;\n        lastDistributionTime = startTime; // Initialize lastDistributionTime\n    }\n\n    modifier onlyOwner() {\n        require(msg.sender == owner, \"Only the owner can call this function\");\n        _;\n    }\n\n    function depositFunds() public payable onlyOwner {\n        require(msg.value == totalAmount, \"Incorrect amount sent\");\n    }\n\n    function distributeFundsAutomatically() public onlyOwner {\n        require(block.timestamp >= startTime, \"Payment period has not started yet\");\n        require(totalPaid < totalAmount, \"All funds have been distributed\");\n        require(block.timestamp >= lastDistributionTime + paymentInterval, \"Payment interval has not elapsed yet\");\n    \n        for (uint256 i = 0; i < beneficiaries.length; i++) {\n            address beneficiary = beneficiaries[i];\n            uint256 amountToPay = (totalAmount * paymentPercentage) / 100;\n            if (amountsPaid[beneficiary] < amountToPay) {\n                uint256 remainingAmount = amountToPay - amountsPaid[beneficiary];\n                if (totalPaid + remainingAmount <= totalAmount) {\n                    payable(beneficiary).transfer(remainingAmount);\n                    amountsPaid[beneficiary] += remainingAmount;\n                    totalPaid += remainingAmount;\n                    emit Payment(beneficiary, remainingAmount);\n                } else {\n                    uint256 finalPayment = totalAmount - totalPaid;\n                    payable(beneficiary).transfer(finalPayment);\n                    amountsPaid[beneficiary] += finalPayment;\n                    totalPaid += finalPayment;\n                    emit Payment(beneficiary, finalPayment);\n                }\n            }\n        }\n    \n        lastDistributionTime = block.timestamp;\n    }\n\n    function withdrawExcess() public onlyOwner {\n        require(block.timestamp >= startTime, \"Payment period has not started yet\");\n        require(totalPaid >= totalAmount, \"Total amount not paid yet\");\n\n        owner.transfer(address(this).balance - totalAmount);\n    }\n\n    function getTotalAmount() public view returns (uint256) {\n        return totalAmount;\n    }\n\n    function getTotalPaid() public view returns (uint256) {\n        return totalPaid;\n    }\n}\n\n",
  "sourcePath": "/Users/mac/Documents/workstation/2024/new/teneder/src/contracts/PaymentContract.sol",
  "compiler": {
    "name": "solc",
    "version": "0.8.21+commit.d9974bed.Emscripten.clang"
  },
  "schemaVersion": "3.4.16",
  "updatedAt": "2024-04-22T19:05:48.742Z",
  "devdoc": {
    "kind": "dev",
    "methods": {},
    "version": 1
  },
  "userdoc": {
    "kind": "user",
    "methods": {},
    "version": 1
  }
}